:100000000C9434000C9446000C9446000C9446006A
:100010000C9446000C9446000C9446000C94460048
:100020000C9446000C9446000C9446000C94460038
:100030000C9446000C9446000C9446000C94460028
:100040000C9446000C9446000C9446000C94460018
:100050000C9446000C9446000C9446000C94460008
:100060000C9446000C94460011241FBECFEFD8E03C
:10007000DEBFCDBF21E0A0E0B1E001C01D92AE30F7
:10008000B207E1F70E9448000C9463010C94000051
:100090000E941A010E9440010E949D0087E690E0A4
:1000A0000E942A011F993BC01E992BC087E893E14B
:1000B0000197F1F700C0000085B1816085B980E04B
:1000C0000E944701CAE0D1E0998388830E94AB0077
:1000D0009B838A83C0E0D0E00AC0E0910C01F091DC
:1000E0000D01EC0FFD1F80810E9439012196C63061
:1000F000D1059CF387E893E10197F1F700C0000078
:10010000D1CF87E893E10197F1F700C0000010928A
:1001100089001092880085B18E7F85B9C3CF85B1E3
:100120008E7F85B9109289001092880087E893E14C
:100130000197F1F700C00000B5CFE0E8F0E0808162
:1001400083688083E1E8F0E080818B60808384B104
:10015000826084B90895823D9105A0F48DEC90E011
:100160009093890080938800E0E0F1E082E380834F
:1001700080E3818380EB828383E4838380E28483D2
:10018000158255C08E3F21E09207A0F48AE991E0E4
:100190009093890080938800E0E0F1E082E380831F
:1001A00085E3818380EB828383E4838380E284839D
:1001B00015823DC0863C22E09207A0F48DEC92E0CF
:1001C0009093890080938800E0E0F1E082E38083EF
:1001D00089E3818380EB828383E4838380E2848369
:1001E000158225C08130944098F48DEC93E0909373
:1001F000890080938800E0E0F1E083E380838183DD
:1002000080EB828383E4838380E2848315820FC042
:100210001092890010928800E0E0F1E08FE4808382
:1002200086E48183828380E283838483158280E0F5
:1002300091E0089584B1816084B984B18F7B84B9E1
:1002400085B1806485B984B18F7784B985B18068C0
:1002500085B908958093C4009093C500E2ECF0E066
:10026000808186608083E1ECF0E08081886D80830E
:1002700008959091C00095FFFCCF8093C60008952B
:1002800080E480937C0087E880937A000895ECE70F
:10029000F0E09081987F908387709081892B808394
:1002A000EAE7F0E080818064808380917A0084FFB7
:1002B000FCCFEAE7F0E08081806180838091780064
:0A02C000909179000895F894FFCFA3
:00000001FF
